:020000040800F2
:1000000000A00020C9010008C50C0008C70C0008AA
:10001000C90C0008CB0C0008CD0C00080000000043
:10002000000000000000000000000000CF0C0008ED
:10003000D10C000800000000D30C0008D50C00080B
:100040001902000819020008190200081902000824
:100050001902000819020008190200081902000814
:100060001902000819020008190200081902000804
:1000700019020008190200081902000819020008F4
:1000800019020008190200081902000819020008E4
:1000900019020008190200081902000819020008D4
:1000A00019020008190200081902000819020008C4
:1000B00019020008190200081902000819020008B4
:1000C00019020008190200081902000819020008A4
:1000D0001902000819020008190200081902000894
:1000E0001902000819020008190200081902000884
:1000F0001902000819020008190200081902000874
:1001000000000000000000000000000019020008CC
:100110001902000819020008190200081902000853
:100120001902000819020008190200081902000843
:100130001902000819020008000000000000000079
:100140001902000819020008190200080000000046
:10015000000000000000000000000000000000009F
:100160000000000000000000190200081902000849
:10017000190200080000000000000000000000005C
:08018000000000001902000854
:1001880010B5054C237833B9044B13B10448AFF3C9
:1001980000800123237010BD0C0000200000000027
:1001A800B821000808B5034B1BB103490348AFF356
:1001B800008008BD0000000010000020B8210008E1
:1001C800DFF834D0002103E00C4B5B584350043176
:1001D8000B480C4B42189A42F6D30B4A02E0002314
:1001E80042F8043B094B9A42F9D300F073FD01F041
:1001F800B3FF00F0B5F9FEE700A0002010220008C8
:10020800000000200C0000200C000020200100202D
:10021800FEE70000F0B58DB0002407940894099417
:100228000A940B94514B5A6942F400125A615A6964
:1002380002F400120192019A5A6942F400225A61AA
:100248005A6902F400220292029A5A6942F4800220
:100258005A615A6902F480020392039A5A6942F475
:1002680000325A615A6902F400320492049A5A69B7
:1002780042F480125A615A6902F480120592059A72
:100288005A6942F480225A615B6903F48023069319
:10029800069B374E22464FF60851304600F0D7FEEF
:1002A80022460D214FF0904000F0D1FE314F2246FA
:1002B8001021384600F0CBFE362307932E4B0893C7
:1002C800099407A9304600F0F1FD4FF6085307934B
:1002D8000125089509940A9407A9304600F0E6FD1F
:1002E8000D230793089509940A9407A94FF09040A5
:1002F80000F0DCFD10230793089509940A9407A9D8
:10030800384600F0D3FDE0230793022608960994A7
:100318000A9405230B9307A94FF0904000F0C6FDFF
:100328004FF4784307930894099407A9134800F0F9
:10033800BDFD4FF4C05307930896099403230A930D
:100348000E230B9307A94FF0904000F0AFFDC02398
:1003580007931223089309950A9404230B9307A97A
:10036800074800F0A3FD0DB0F0BD00BF001002402B
:10037800001000480014004800001210000C00484B
:100388000004004830B58BB0002407940894099401
:100398000094019402940394049405940694114DD6
:1003A800114B2B6040F67F436B60AC606323EB60BE
:1003B8002C61AC61284601F0F3FB0794099407A966
:1003C800284601F053FE602300930194029404949C
:1003D80004226946284601F0AFFD284600F010FCCB
:1003E8000BB030BD380000200004004030B58BB0A1
:1003F80000240794089409940094019402940394A7
:10040800049405940694124D4FF080432B6040F6F7
:100418007F436B60AC606323EB602C61AC61284662
:1004280001F0BEFB0794099407A9284601F01EFEB7
:100438006023009301940294049404226946284698
:1004480001F07AFD284600F0DBFB0BB030BD00BFA1
:10045800D400002030B597B0002413941494159458
:100468000C940D940E940F941094119412942C22C1
:10047800214601A801F094FE1D4D1E4B2B6040F64D
:100488007F436B60AC606323EB602C616C61AC6193
:10049800284601F085FB13941494159413A9284653
:1004A80001F0E4FD60230C930D940E940F941094C6
:1004B8001194129422460CA9284601F03DFD01949E
:1004C80002940394049405944FF4005306930794FC
:1004D80008944FF0007309930A940B9401A92846D5
:1004E80001F0F0FD284600F08BFB17B030BD00BFCF
:1004F8008C000020002C014030B59FB02022002144
:1005080015A801F04DFE00240F9410941194129434
:1005180013943C222146684601F042FE02251495B8
:1005280001231893102319931B954FF460131D93FF
:1005380014A800F091FD0F230F93109511944FF418
:1005480080631293139429460FA801F0C9F84FF459
:10055800805300930C94684601F092F91FB030BDA7
:1005680008B500F00FFCFFF7C7FFFFF753FEFFF7D2
:1005780009FFFFF73BFFFFF76DFF0421C54801F0B6
:1005880049FC0421C44801F045FCC44BC44A1A6024
:10059800C44BC54A1A60C54BC54A1A60C54B4FF0D3
:1005A8007F521A604FF4FA6000F010FCF2E1F5EEA9
:1005B800C07AF1EE10FA1DDD37EEC77ABB4BD3EDEA
:1005C800006A26EEC77ABC4B93ED006AC7EE066A4E
:1005D800BA4BC3ED006AF5EEC06AF1EE10FA05DD1C
:1005E800B0EE086A86EE867A83ED007AB24B002276
:1005F8001A60E4E1F5EEC07AF1EE10FA40F1DF811D
:1006080037EE677AA94BD3ED006A27EE267AAA4B14
:1006180093ED006AC7EE066AA84BC3ED006AF5EED3
:10062800C06AF1EE10FA03D4A34B00221A60C6E1A7
:10063800B0EE086A86EE867A83ED007AF4E7012246
:100648004FF400419E4800F002FD944BD3ED007A30
:10065800F1EE046A87EEA67A67EEC77A994B93EDB6
:10066800007A77EE277AC3ED007A974BD3ED007ABC
:10067800B7EE007A77EE877AC3ED007AB5E101220A
:100688004FF480518E4800F0E2FC8E4BD3ED007A97
:10069800824A92ED007A77EE877AC3ED007A8A4B28
:1006A800D3ED007AB7EE007A77EE877AC3ED007A59
:1006B800A9E101224FF48041814800F0C8FC814B38
:1006C800D3ED007A754A92ED007A77EEC77AC3EDDA
:1006D800007A7D4BD3ED007AB7EE007A77EE877A11
:1006E800C3ED007A9DE101224FF40051744800F0F7
:1006F800AEFC754BD3ED007AB7EE007A77EE877AC9
:10070800C3ED007A9BE1654BD3ED007AB6EE007A33
:1007180027EE877A67EEC77A6A4B93ED007A77EE11
:10072800277AC3ED007A01224FF48071644800F003
:100738008EFC654BD3ED007AB7EE007A77EE877AB8
:10074800C3ED007A8DE1554BD3ED007AB6EE007A11
:1007580027EE877A67EE877A5A4B93ED007A77EE21
:10076800277AC3ED007A01224FF48061544800F0E3
:100778006EFC554BD3ED007AB7EE007A77EE877AA8
:10078800C3ED007A76E14E4C00224FF4806120469A
:1007980000F05DFC00224FF48071204600F057FC09
:1007A80068E14A4B4A4A1A604A4B83ED007A4A4B41
:1007B8004FF07E521A600CE09FED487A77EEC77AC8
:1007C800424BC3ED007A434B83ED007A424B002243
:1007D8001A60414BD3ED007AF5EE407AF1EE10FA4B
:1007E80000F0A980B0EE007AF4EE477AF1EE10FA44
:1007F80000F07781B7EE007AF4EE477AF1EE10FA5E
:1008080040F0B080002201214FF0904000F01FFC22
:10081800012208214FF0904000F019FC0122042128
:100828004FF0904000F013FC002210212C4800F0FB
:100838000EFC97E09FED2B7AF4EEC77AF1EE10FAF2
:1008480068DD9FED2C7AF4EEC77AF1EE10FA53DDED
:100858009FED257AF4EEC77AF1EE10FA0ADD1D4B0A
:10086800224A1A60194B224A1A601B4B4FF08042E9
:100878001A60AEE79FED1F7A77EEC77A154BC3ED86
:10088800007A124B1A4A1A60134B4FF080421A60D2
:100898009FE700BFD400002038000020300000206F
:1008A80000005841D000002000803B45280000206F
:1008B80000A08C46CC000020180100207C000020FD
:1008C8000010004814010020840000207800002057
:1008D8000000B44234000020800000200000C8421C
:1008E80000140048000048430000C8430000984135
:1008F8000000C842000096431FED027A77EE677A3F
:10090800844BC3ED007A844B844A1A60844B0022DE
:100918001A605EE79FED837AF4EE477AF1EE10FAFB
:100928007FF457AF7D4B7B4A13607B4A13607C4B47
:1009380000221A604DE7002201214FF0904000F09C
:1009480086FB012208214FF0904000F080FB002236
:1009580004214FF0904000F07AFB012210217248E8
:1009680000F075FB714B93ED007A6A4BD3ED006A8A
:10097800C6EE877AFCEEE77A4FF08043C3ED0E7A35
:10098800654BD3ED006AC6EE877AFCEEE77A684BD2
:10099800C3ED0E7A674B93ED007A674BD3ED007A7F
:1009A800B4EE677AF1EE10FA7FF401AE634B93ED83
:1009B800007AF7EE006A37EE267A83ED007A5D4B0F
:1009C800C3ED007A00235C4A13605D4A13604FF45C
:1009D80000615C4800F034FB01283FF430AE00228F
:1009E8004FF40041584800F032FB4FF4804155481D
:1009F80000F026FB01283FF442AE00224FF480515C
:100A0800514800F024FB4FF480514E4800F018FB89
:100A180001283FF44EAE00224FF480414A4800F0CE
:100A280016FB4FF40051474800F00AFB01283FF439
:100A38005AAE00224FF40051434800F008FB404BE7
:100A4800D3ED007AF5EE407AF1EE10FA7FF49BAE22
:100A5800384BD3ED007AF5EEC07AF1EE10FA3FF597
:100A680052AE344BD3ED007AF5EEC07AF1EE10FABF
:100A78003FF769AE304BD3ED006A314B93ED007A06
:100A8800C6EE877A9FED277A77EE677A2F4BD3EDFC
:100A9800006A77EEA67A2E4BC3ED007AF4EEC77A99
:100AA800F1EE10FA7FF5C6AE9FED2A7AF4EEC77A1A
:100AB800F1EE10FA7FF580AEF5EEC07AF1EE10FA9D
:100AC8003FF56FAE9FED237A77EE677A124BC3ED51
:100AD800007A104B83ED007A114B4FF07E521A606A
:100AE80077E6012211464FF0904000F0B0FA00225C
:100AF80008214FF0904000F0AAFA002204214FF09C
:100B0800904000F0A4FA01221021074800F09FFA53
:100B180028E700BF34000020780000200000C84209
:100B2800800000200000484300140048CC0000204A
:100B38000004004088000020140100201801002053
:100B480084000020000C0048001000487C000020B1
:100B58002C0000200000C84200B583B00C4B9A69F5
:100B680042F001029A619A6902F001020092009A29
:100B7800DA6942F08052DA61DB6903F0805301934D
:100B8800019B072000F036F903B05DF804FB00BFB5
:100B98000010024084B00368164A934207D0B3F1AC
:100BA800804F0FD0144A934218D004B07047134BAB
:100BB8009A6942F400629A619B6903F400630193A5
:100BC800019BF2E703F50433DA6942F00102DA61C6
:100BD800DB6903F001030293029BE6E7074BDA693E
:100BE80042F00202DA61DB6903F002030393039B1C
:100BF800DBE700BF002C0140000400400010024069
:100C080000B589B0002303930493059306930793D3
:100C18000368264A934208D0B3F1804F1AD0244A79
:100C280093422DD009B05DF804FB224B5A6942F477
:100C380000125A615B6903F400130093009B4FF4A0
:100C48000073039302230493079303A91A4800F03F
:100C58002DF9E7E703F504335A6942F400325A6183
:100C68005B6903F400330193019B0223039304930C
:100C78000123079303A94FF0904000F017F9D1E73B
:100C88000C4B5A6942F400325A615B6903F4003331
:100C98000293029B1023039302230493079303A94F
:100CA8004FF0904000F002F9BCE700BF002C014073
:100CB8000004004000100240001000487047FEE7A2
:100CC800FEE7FEE7FEE770477047704708B500F09B
:100CD8006BF808BD1549D1F8883043F47003C1F8A2
:100CE8008830134B1A6842F001021A605868114A9A
:100CF80002405A601A6822F0847222F480321A6024
:100D08001A6822F480221A605A6822F4FE025A6095
:100D1800DA6A22F00F02DA62186B074A02401A6395
:100D280000229A604FF000638B60704700ED00E08E
:100D3800001002400CC07FF8CCFC00FF10B5044640
:100D48000E4B18784FF47A73B3FBF0F30C4A106823
:100D5800B0FBF3F000F094F868B90F2C01D901202A
:100D68000AE0002221464FF0FF3000F055F8034B0F
:100D78005C60002000E0012010BD00BF04000020DE
:100D88000000002008B5074A136843F010031360F9
:100D9800032000F02FF80020FFF7D0FFFFF7DCFE5C
:100DA800002008BD00200240034A1168034B1B784D
:100DB8000B441360704700BF1C0100200400002092
:100DC800014B1868704700BF1C01002038B5044665
:100DD800FFF7F6FF0546B4F1FF3F02D0044B1B783E
:100DE8001C44FFF7EDFF401BA042FAD338BD00BFFB
:100DF80004000020074AD36823F4E0631B041B0C9B
:100E0800000200F4E060184340F0BF6040F4003096
:100E1800D060704700ED00E030B4174BDB68C3F3D7
:100E28000223C3F10704042C28BF04241D1D062D2A
:100E380018D9033B4FF0FF3505FA04F421EA040101
:100E4800994005FA03F322EA0303194300280BDB50
:100E58000901C9B200F1604000F5614080F8001353
:100E680030BC70470023E5E700F00F000901C9B264
:100E7800024B1954F4E700BF00ED00E014ED00E068
:100E88000138B0F1807F0AD2064B5860064AF0213B
:100E980082F823100020986007221A60704701200A
:100EA800704700BF10E000E000ED00E0F0B482B051
:100EB800002336E0042400E00024B4403C4302351B
:100EC8005B4E46F825405B4C2568D44304EA05068A
:100ED8004F6817F4803F01D042EA0506554D2E6051
:100EE8006D6804EA05064F6817F4003F01D042EA2E
:100EF8000506504D6E60AD6804EA05064F6817F4A4
:100F0800801F01D042EA05064A4DAE60ED682C40CC
:100F18004E6816F4001F01D042EA0504454AD46021
:100F280001330A6832FA03F47ED001249C4022403F
:100F3800F6D04D68022D01D0122D10D1DE080836EA
:100F480050F826C003F00705AF000F25BD402CEA76
:100F5800050C0D69BD4045EA0C0540F826500668A9
:100F68005F000325BD40ED4305EA060C4E6806F018
:100F78000306BE4046EA0C0606604E6806F1FF3CD2
:100F8800BCF1010F03D9112E01D0122E10D18668A1
:100F980005EA060CCE68BE4046EA0C06866046683E
:100FA80026EA04044E68C6F300169E4026434660AF
:100FB800C46825408C68BC402C43C4604C6814F05D
:100FC800805FADD01C4CA56945F00105A561A469F9
:100FD80004F001040194019C9D08AE1C144C54F8C3
:100FE800267003F00304A6000F24B44027EA040780
:100FF800B0F1904F3FF460AF104CA0420ED004F512
:101008008064A0420CD004F58064A0420AD004F5A4
:101018008064A0423FF44EAF05244EE701244CE71C
:1010280002244AE7032448E702B0F0BC704700BF37
:101038000000014000040140001002400004004884
:101048000369194201D100207047012070470AB98D
:101058008162704781617047002800F0F58270B5A1
:1010680082B00446036813F0010F3BD0B54B5B68B0
:1010780003F00C03042B1ED0B24B5B6803F00C0387
:10108800082B13D06368B3F5803F68D0002B40F07D
:10109800928003F1804303F504331A6822F4803206
:1010A8001A601A6822F480221A605DE0A54B5B681A
:1010B80013F4803FE6D04FF4003393FAA3F3A14B27
:1010C80019684FF4003393FAA3F3B3FA83F303F0E8
:1010D8001F03012202FA03F30B4203D06368002BBB
:1010E80000F0B482236813F0020F00F0C680954B1D
:1010F8005B6813F00C0F00F09C80924B5B6803F068
:101108000C03082B00F08F802369002B00F0F3807C
:10111800012292FAA2F3B3FA83F303F1845303F59D
:1011280084139B001A60FFF74BFE0546022393FACF
:10113800A3F3844B1968022393FAA3F3B3FA83F356
:1011480003F01F03012202FA03F30B4240F0C480AC
:10115800FFF736FE401B0228E8D9032083E2794ACC
:10116800136843F480331360764AD36A23F00F037D
:10117800A1680B43D3626368002B36D0FFF720FECB
:1011880005464FF4003393FAA3F36E4B19684FF4F6
:10119800003393FAA3F3B3FA83F303F01F03012296
:1011A80002FA03F30B429DD1FFF70AFE401B6428A5
:1011B800E7D9032057E2B3F5A02F09D0614B1A688D
:1011C80022F480321A601A6822F480221A60CBE76F
:1011D80003F18043A3F53C331A6842F480221A6075
:1011E8001A6842F480321A60BEE7FFF7E9FD054647
:1011F8004FF4003393FAA3F3524B19684FF40033BA
:1012080093FAA3F3B3FA83F303F01F03012202FA5C
:1012180003F30B423FF466AFFFF7D2FD401B64288F
:10122800E6D903201FE2474B5B6813F4803F7FF445
:101238006BAF022393FAA3F3424B1968022393FA84
:10124800A3F3B3FA83F303F01F03012202FA03F3B3
:101258000B4204D02369934201D0012003E23948AC
:10126800036823F0F8036169F82292FAA2F2B2FA4D
:1012780082F201FA02F213430360236813F0080FA5
:1012880000F08C80A369002B60D0012191FAA1F2B3
:10129800B2FA82F22C4B13449B001960FFF790FDC1
:1012A8000546022393FAA3F293FAA3F293FAA3F260
:1012B800244A516A93FAA3F3B3FA83F303F01F03A2
:1012C800012202FA03F30B4268D1FFF779FD401BB4
:1012D8000228E6D90320C6E11A48036823F0F80378
:1012E8006169F82292FAA2F2B2FA82F201FA02F2E3
:1012F80013430360C1E7012393FAA3F3B3FA83F31B
:1013080003F1845303F584139B0000221A60FFF74E
:1013180057FD0546022393FAA3F30A4B19680223E3
:1013280093FAA3F3B3FA83F303F01F03012202FA3B
:1013380003F30B42A1D0FFF743FD401B0228E9D974
:10134800032090E10010024020819010012292FABF
:10135800A2F2B2FA82F2C04B13449B0000221A6038
:10136800FFF72EFD0546022393FAA3F293FAA3F2A0
:1013780093FAA3F2B94A516A93FAA3F3B3FA83F33F
:1013880003F01F03012202FA03F30B4206D0FFF712
:1013980017FD401B0228E6D9032064E1236813F0F7
:1013A800040F00F0B380AD4BDB6913F0805F20D1F0
:1013B800AA4BDA6942F08052DA61DB6903F08053A4
:1013C8000193019B0125A64B1B6813F4807F12D063
:1013D800E368012B23D073BB03F1804303F5043387
:1013E8001A6A22F001021A621A6A22F004021A62C8
:1013F8001AE00025E7E79A4A136843F480731360FC
:10140800FFF7DEFC0646964B1B6813F4807FDFD19E
:10141800FFF7D6FC801B6428F5D9032023E18F4A07
:10142800136A43F001031362E368002B41D0FFF70E
:10143800C7FC06462BE0052B09D0884B1A6A22F018
:1014480001021A621A6A22F004021A62ECE7834B5C
:101458001A6A42F004021A621A6A42F001021A6217
:10146800E2E77E4B196A022393FAA3F3B3FA83F3F4
:1014780003F01F03012202FA03F3194245D1FFF7D3
:101488009FFC801B41F28833984200F2E1800223DE
:1014980093FAA3F293FAA3F3B3FA83F35B0943F045
:1014A8000203022BDDD0022393FAA3F36B4B596A94
:1014B800D9E7FFF785FC064615E0684B196A022351
:1014C80093FAA3F3B3FA83F303F01F03012202FA9A
:1014D80003F3194219D0FFF773FC801B41F28833DC
:1014E800984200F2B780022393FAA3F293FAA3F387
:1014F800B3FA83F35B0943F00203022BDDD0022326
:1015080093FAA3F3554B596AD9E7B5BBE369002BA6
:1015180000F0A880514A526802F00C02082A00F034
:10152800A480022B2FD04FF0807393FAA3F3B3FA61
:1015380083F303F1845303F584139B0000221A609C
:10154800FFF73EFC04464FF0007393FAA3F3434BB6
:1015580019684FF0007393FAA3F3B3FA83F303F017
:101568001F03012202FA03F319426BD0FFF728FC8C
:10157800001B0228E7D9032075E0384AD36923F015
:101588008053D361C2E74FF0807393FAA3F3B3FAA1
:1015980083F303F1845303F584139B0000221A603C
:1015A800FFF70EFC05464FF0007393FAA3F32B4B9D
:1015B80019684FF0007393FAA3F3B3FA83F303F0B7
:1015C8001F03012202FA03F3194206D0FFF7F8FBC2
:1015D800401B0228E7D9032045E020494B6823F443
:1015E8007413626A206A024313434B604FF080739E
:1015F80093FAA3F3B3FA83F303F1845303F5841343
:101608009B0001221A60FFF7DBFB04464FF00073D2
:1016180093FAA3F3114B19684FF0007393FAA3F3ED
:10162800B3FA83F303F01F03012202FA03F319420A
:1016380006D1FFF7C5FB001B0228E7D9032012E0FB
:10164800002010E000200EE00120704701200AE091
:10165800032008E0032006E02081901000100240DB
:1016680000700040002002B070BD0120FBE700BF01
:1016780010B4174B5C6804F00C03082B26D104F453
:1016880070124FF4701393FAA3F3B3FA83F322FAA8
:1016980003F31049C85C0E4BDB6A03F00F030F22FB
:1016A80092FAA2F2B2FA82F2D3400B441A7C14F4F2
:1016B800803F05D1084B03FB00F05DF8044B7047F1
:1016C800064BB3FBF2F300FB03F0F6E70348F4E73D
:1016D80000100240E821000800093D0000127A00CD
:1016E800002800F0C08070B50446614B1B6803F009
:1016F80007038B420CD25E4A136823F007030B439F
:101708001360136803F007038B4201D0012070BDFA
:10171800236813F0020F06D0564A536823F0F003EB
:10172800A068034353600D46236813F0010F5AD095
:101738006368012B2DD0022B40D0022292FAA2F22C
:101748004C4A1068022292FAA2F2B2FA82F202F02D
:101758001F02012101FA02F2104200F08680454979
:101768004A6822F0030213434B60FFF729FB064641
:10177800404B5B6803F00C036268B3EB820F32D016
:10178800FFF71EFB801B41F288339842F0D90320F3
:10179800BDE74FF4003292FAA2F2364A10684FF4CD
:1017A800003292FAA2F2B2FA82F202F01F0201218A
:1017B80001FA02F20242D2D10120A8E74FF00072EA
:1017C80092FAA2F22B4A10684FF0007292FAA2F233
:1017D800B2FA82F202F01F02012101FA02F210426B
:1017E800BDD1012093E7224B1B6803F00703AB42EE
:1017F8000CD91F4A136823F007032B43136013689F
:1018080003F00703AB4201D0012080E7236813F0FF
:10181800040F06D0174A536823F4E063E1680B43CA
:101828005360236813F0080F07D0124A536823F453
:101838006053216943EAC1035360FFF719FF0D4B59
:101848005B6803F0F003F02292FAA2F2B2FA82F295
:10185800D340094AD35CD840084B18600020FFF7F2
:101868006DFA002053E70120704701204FE700BFC1
:101878000020024000100240D02100080000002093
:10188800F0B583B00446036813F4803F48D0934B07
:10189800DB6913F0805F40F0D580904BDA6942F045
:1018A8008052DA61DB6903F080530193019B0125C3
:1018B8008B4B1B6813F4807F00F0C680874B1B6A34
:1018C80013F4407322D0626802F440729A421DD029
:1018D8008248016A21F440764FF4803393FAA3F2E8
:1018E800B2FA82F27F4F3A4492004FF0010CC2F8EC
:1018F80000C093FAA3F3B3FA83F33B449B0000229E
:101908001A60066211F0010F40F0B380734A136A3F
:1019180023F4407361680B431362002D40F0D580B7
:10192800236813F0010F06D06C4A136B23F00303EE
:10193800A1680B431363236813F0020F06D0674AAC
:10194800136B23F44033E1680B431363236813F0EC
:10195800040F06D0614A136B23F4402321690B431B
:101968001363236813F0200F06D05C4A136B23F02F
:101978001003E1690B431363236813F4003F06D097
:10198800564A536823F48003A16B0B4353602368C2
:1019980013F0400F06D0514A136B23F02003216A3D
:1019A8000B431363236813F0080F06D04B4A136BDD
:1019B80023F4401361690B431363236813F0100F7A
:1019C80006D0464A136B23F44003A1690B43136303
:1019D800236813F4007F06D0404A536823F40003B9
:1019E800E16A0B435360236813F0800F06D03B4A2B
:1019F800D36A23F4F873616A0B43D362236813F440
:101A0800807F06D0354AD36A23F47853A16A0B4302
:101A1800D362236813F4805F06D0304A136B23F433
:101A28008073216B0B431363236813F4005F53D057
:101A38002A4A136B23F40073616B0B431363002072
:101A480003B0F0BD002533E7254A136843F48073DB
:101A58001360FFF7B5F90646214B1B6813F4807F26
:101A68007FF42CAFFFF7ACF9801B6428F4D903206E
:101A7800E6E7FFF7A5F9064615E0184B196A0223B1
:101A880093FAA3F3B3FA83F303F01F03012202FAD4
:101A980003F30B427FF43AAFFFF792F9801B41F250
:101AA8008833984216D8022393FAA3F293FAA3F341
:101AB800B3FA83F35B0943F00203022BDDD0022360
:101AC80093FAA3F3054B596AD9E7D36923F08053F6
:101AD800D36125E70320B3E70020B1E700100240F7
:101AE800007000400081901003682C4A90420ED08C
:101AF800B0F1804F0BD0A2F59432904207D002F596
:101B08008062904203D002F59632904203D123F0CE
:101B180070034A681343214A90421AD0B0F1804FAB
:101B280017D0A2F59432904213D002F58062904209
:101B38000FD002F5963290420BD002F540629042E7
:101B480007D002F58062904203D002F5806290428D
:101B580003D123F44073CA68134323F080034A690E
:101B6800134303608B68C3620B6883620B4B984214
:101B78000FD003F5006398420BD003F540639842F9
:101B880007D003F58063984203D003F58063984239
:101B980001D10B690363012343617047002C0140A5
:101BA800A8B110B5044690F83D305BB1022384F823
:101BB8003D30211D2068FFF797FF012384F83D3051
:101BC800002010BD80F83C30FEF7E4FFEEE701206E
:101BD8007047000030B4036A23F001030362036A0C
:101BE8004468826922F4803222F073020D682A4325
:101BF80023F002038D682B431C4DA8420FD005F536
:101C08000065A8420BD005F54065A84207D005F548
:101C18008065A84203D005F58065A84205D123F068
:101C28000803CD682B4323F00403104DA8420FD0BE
:101C380005F50065A8420BD005F54065A84207D018
:101C480005F58065A84203D005F58065A84205D151
:101C580024F440754C692C438D692C43446082619F
:101C68004A684263036230BC704700BF002C0140E1
:101C780030B4036A23F010030362036A446882697C
:101C880022F0807222F4E6420D6842EA052223F02F
:101C980020038D6843EA0513174DA84203D005F5C4
:101CA8000065A84206D123F08003CD6843EA0513F6
:101CB80023F04003104DA8420FD005F50065A84257
:101CC8000BD005F54065A84207D005F58065A84208
:101CD80003D005F58065A84207D124F440644D6916
:101CE80044EA85048D6944EA8504446082614A684F
:101CF8008263036230BC7047002C014030B4036A31
:101D080023F480730362036A4468C26922F4803250
:101D180022F073020D682A4323F400738D6843EAA6
:101D28000523184DA84203D005F50065A84206D141
:101D380023F40063CD6843EA052323F48063114D3F
:101D4800A8420FD005F50065A8420BD005F54065FF
:101D5800A84207D005F58065A84203D005F580653F
:101D6800A84207D124F440544D6944EA05148D690A
:101D780044EA05144460C2614A68C263036230BC25
:101D8800704700BF002C014030B4036A23F480532D
:101D98000362036A4468C26922F0807222F4E64250
:101DA8000D6842EA052223F400538D6843EA05339F
:101DB8000F4DA8420FD005F50065A8420BD005F5D8
:101DC8004065A84207D005F58065A84203D005F50F
:101DD8008065A84204D124F480444D6944EA8514FE
:101DE8004460C2614A680264036230BC704700BF45
:101DF800002C014010B4012303FA01F4036A23EA1A
:101E080004030362036A8A40134303625DF8044BC8
:101E18007047000010B5044601220068FFF7EAFF8A
:101E280023680F4A93420FD002F5006293420BD009
:101E380002F54062934207D002F58062934203D0D4
:101E480002F58062934203D15A6C42F400425A640C
:101E58002268136843F001031360002010BD00BF1F
:101E6800002C014030B4036A23F480330362036A10
:101E78004468426D22F4803222F070020D682A43D1
:101E880023F400338D6843EA05430F4DA8420FD071
:101E980005F50065A8420BD005F54065A84207D0B6
:101EA80005F58065A84203D005F58065A84204D1F0
:101EB80024F480344D6944EA0524446042654A6844
:101EC8008265036230BC7047002C014030B4036A5D
:101ED80023F480130362036A4468426D22F080721F
:101EE80022F4E0420D6842EA052223F400138D68CB
:101EF80043EA05530F4DA8420FD005F50065A842E7
:101F08000BD005F54065A84207D005F58065A842C5
:101F180003D005F58065A84204D124F480244D69D6
:101F280044EA8524446042654A68C265036230BC5D
:101F3800704700BF002C014038B590F83C30012BA9
:101F480000F092800D460446012380F83C300223BD
:101F580080F83D30142A1ED8DFE802F00B1D1D1D45
:101F6800241D1D1D381D1D1D4B1D1D1D5F1D1D1D07
:101F780072000068FFF72EFE2268936943F0080399
:101F880093612268936923F004039361226893693B
:101F980029690B439361012384F83D30002084F8BC
:101FA8003C0038BD0068FFF763FE2268936943F47C
:101FB800006393612268936923F4806393612268C4
:101FC8009369296943EA01239361E4E70068FFF70D
:101FD80095FE2268D36943F00803D3612268D36968
:101FE80023F00403D3612268D36929690B43D361C1
:101FF800D1E70068FFF7C8FE2268D36943F400639D
:10200800D3612268D36923F48063D3612268D369DA
:10201800296943EA0123D361BDE70068FFF722FF7E
:102028002268536D43F0080353652268536D23F00B
:10203800040353652268536D29690B435365AAE766
:102048000068FFF743FF2268536D43F4006353654C
:102058002268536D23F4806353652268536D2969A0
:1020680043EA0123536596E702209AE790F83C304B
:10207800012B22D030B4012380F83C300268536829
:1020880095680F4CA24203D004F50064A24203D124
:1020980023F470034C68234323F070030C68234334
:1020A80025F0800489682143536003689960002300
:1020B80080F83C30184630BC70470220704700BF9B
:1020C800002C014090F83C30012B41D010B4012382
:1020D80080F83C30CB6823F440738A68134323F4B8
:1020E80080634A68134323F400630A68134323F4A4
:1020F80080530A69134323F400534A69134323F4B2
:1021080080438A6A134323F40043134323F4702360
:102118008A6943EA024302680E4CA24203D004F5DE
:102128000064A2420CD123F470034C6A43EA0453BE
:1021380023F08073CC69234323F00073096A0B43AF
:102148005364002380F83C3018465DF8044B704710
:1021580002207047002C014070B50D4E0D4CA41B99
:10216800A4100025A54209D10B4E0C4C00F020F814
:10217800A41BA4100025A54205D170BD56F8253032
:1021880098470135EEE756F8253098470135F2E7CC
:102198000822000808220008082200080C2200086B
:1021A80002440346934200D1704703F8011BF9E744
:1021B800F8B500BFF8BC08BC9E467047F8B500BF2C
:0821C800F8BC08BC9E467047FC
:1021D00000000000000000000102030406070809D7
:1021E00000000000010203040203040506070809B9
:1021F0000A0B0C0D0E0F1010010203040506070850
:08220000090A0B0C0D0E0F1072
:04220800AD0100081C
:04220C00890100083C
:0C22100000127A00010000001000000025
:04000005080001C925
:00000001FF
